{
  "contractName": "SimpleBank",
  "abi": [
    {
      "constant": true,
      "inputs": [
        {
          "name": "",
          "type": "address"
        }
      ],
      "name": "enrolled",
      "outputs": [
        {
          "name": "",
          "type": "bool"
        }
      ],
      "payable": false,
      "stateMutability": "view",
      "type": "function",
      "signature": "0x10eb0e0e"
    },
    {
      "constant": true,
      "inputs": [],
      "name": "owner",
      "outputs": [
        {
          "name": "",
          "type": "address"
        }
      ],
      "payable": false,
      "stateMutability": "view",
      "type": "function",
      "signature": "0x8da5cb5b"
    },
    {
      "inputs": [],
      "payable": false,
      "stateMutability": "nonpayable",
      "type": "constructor",
      "signature": "constructor"
    },
    {
      "payable": true,
      "stateMutability": "payable",
      "type": "fallback"
    },
    {
      "anonymous": false,
      "inputs": [
        {
          "indexed": false,
          "name": "accountAddress",
          "type": "address"
        }
      ],
      "name": "LogEnrolled",
      "type": "event",
      "signature": "0x990c442e6adb818b8fa7db3cf1023decd07f7b66e5306928c7ed527d974192bb"
    },
    {
      "anonymous": false,
      "inputs": [
        {
          "indexed": false,
          "name": "accountAddress",
          "type": "address"
        },
        {
          "indexed": false,
          "name": "amount",
          "type": "uint256"
        }
      ],
      "name": "LogDepositMade",
      "type": "event",
      "signature": "0xa8126f7572bb1fdeae5b5aa9ec126438b91f658a07873f009d041ae690f3a193"
    },
    {
      "anonymous": false,
      "inputs": [
        {
          "indexed": false,
          "name": "accountAddress",
          "type": "address"
        },
        {
          "indexed": false,
          "name": "amount",
          "type": "uint256"
        },
        {
          "indexed": false,
          "name": "newBalance",
          "type": "uint256"
        }
      ],
      "name": "LogWithdrawal",
      "type": "event",
      "signature": "0xf9226daf630542048a23086c6af599511aac100ec8f532793cc9697d061bed7e"
    },
    {
      "constant": true,
      "inputs": [
        {
          "name": "user",
          "type": "address"
        }
      ],
      "name": "getBalance",
      "outputs": [
        {
          "name": "",
          "type": "uint256"
        }
      ],
      "payable": false,
      "stateMutability": "view",
      "type": "function",
      "signature": "0xf8b2cb4f"
    },
    {
      "constant": false,
      "inputs": [
        {
          "name": "accountAddress",
          "type": "address"
        }
      ],
      "name": "enroll",
      "outputs": [
        {
          "name": "",
          "type": "bool"
        }
      ],
      "payable": false,
      "stateMutability": "nonpayable",
      "type": "function",
      "signature": "0xba83d1a0"
    },
    {
      "constant": false,
      "inputs": [
        {
          "name": "accountAddress",
          "type": "address"
        },
        {
          "name": "amount",
          "type": "uint256"
        }
      ],
      "name": "deposit",
      "outputs": [
        {
          "name": "",
          "type": "uint256"
        }
      ],
      "payable": true,
      "stateMutability": "payable",
      "type": "function",
      "signature": "0x47e7ef24"
    },
    {
      "constant": false,
      "inputs": [
        {
          "name": "withdrawAmount",
          "type": "uint256"
        }
      ],
      "name": "withdraw",
      "outputs": [
        {
          "name": "",
          "type": "uint256"
        }
      ],
      "payable": false,
      "stateMutability": "nonpayable",
      "type": "function",
      "signature": "0x2e1a7d4d"
    }
  ],
  "bytecode": "0x608060405234801561001057600080fd5b5033600260006101000a81548173ffffffffffffffffffffffffffffffffffffffff021916908373ffffffffffffffffffffffffffffffffffffffff1602179055506107eb806100616000396000f3fe608060405260043610610078576000357c0100000000000000000000000000000000000000000000000000000000900463ffffffff16806310eb0e0e1461007d57806312065fe0146100e65780632e1a7d4d146101115780638da5cb5b14610160578063d0e30db0146101b7578063e65f2a7e146101d5575b600080fd5b34801561008957600080fd5b506100cc600480360360208110156100a057600080fd5b81019080803573ffffffffffffffffffffffffffffffffffffffff169060200190929190505050610204565b604051808215151515815260200191505060405180910390f35b3480156100f257600080fd5b506100fb610224565b6040518082815260200191505060405180910390f35b34801561011d57600080fd5b5061014a6004803603602081101561013457600080fd5b810190808035906020019092919050505061026a565b6040518082815260200191505060405180910390f35b34801561016c57600080fd5b50610175610449565b604051808273ffffffffffffffffffffffffffffffffffffffff1673ffffffffffffffffffffffffffffffffffffffff16815260200191505060405180910390f35b6101bf61046f565b6040518082815260200191505060405180910390f35b3480156101e157600080fd5b506101ea6105c4565b604051808215151515815260200191505060405180910390f35b60016020528060005260406000206000915054906101000a900460ff1681565b60008060003373ffffffffffffffffffffffffffffffffffffffff1673ffffffffffffffffffffffffffffffffffffffff16815260200190815260200160002054905090565b60008060003373ffffffffffffffffffffffffffffffffffffffff1673ffffffffffffffffffffffffffffffffffffffff1681526020019081526020016000205482111515156102b957600080fd5b816000803373ffffffffffffffffffffffffffffffffffffffff1673ffffffffffffffffffffffffffffffffffffffff168152602001908152602001600020600082825403925050819055503373ffffffffffffffffffffffffffffffffffffffff166108fc839081150290604051600060405180830381858888f1935050505015801561034b573d6000803e3d6000fd5b5060008060003373ffffffffffffffffffffffffffffffffffffffff1673ffffffffffffffffffffffffffffffffffffffff1681526020019081526020016000205490507ff9226daf630542048a23086c6af599511aac100ec8f532793cc9697d061bed7e338483604051808473ffffffffffffffffffffffffffffffffffffffff1673ffffffffffffffffffffffffffffffffffffffff168152602001838152602001828152602001935050505060405180910390a16000803373ffffffffffffffffffffffffffffffffffffffff1673ffffffffffffffffffffffffffffffffffffffff16815260200190815260200160002054915050919050565b600260009054906101000a900473ffffffffffffffffffffffffffffffffffffffff1681565b6000600160003373ffffffffffffffffffffffffffffffffffffffff1673ffffffffffffffffffffffffffffffffffffffff16815260200190815260200160002060009054906101000a900460ff1615156104c957600080fd5b346000803373ffffffffffffffffffffffffffffffffffffffff1673ffffffffffffffffffffffffffffffffffffffff168152602001908152602001600020600082825401925050819055507fa8126f7572bb1fdeae5b5aa9ec126438b91f658a07873f009d041ae690f3a1933334604051808373ffffffffffffffffffffffffffffffffffffffff1673ffffffffffffffffffffffffffffffffffffffff1681526020018281526020019250505060405180910390a16000803373ffffffffffffffffffffffffffffffffffffffff1673ffffffffffffffffffffffffffffffffffffffff16815260200190815260200160002054905090565b6000801515600160003373ffffffffffffffffffffffffffffffffffffffff1673ffffffffffffffffffffffffffffffffffffffff16815260200190815260200160002060009054906101000a900460ff1615151415156106b3576040517f08c379a00000000000000000000000000000000000000000000000000000000081526004018080602001828103825260328152602001807f4f6e6c79206163636f756e7473206e6f7420656e726f6c6c65642063616e206381526020017f616c6c20746869732066756e6374696f6e2e000000000000000000000000000081525060400191505060405180910390fd5b60018060003373ffffffffffffffffffffffffffffffffffffffff1673ffffffffffffffffffffffffffffffffffffffff16815260200190815260200160002060006101000a81548160ff0219169083151502179055507f990c442e6adb818b8fa7db3cf1023decd07f7b66e5306928c7ed527d974192bb33604051808273ffffffffffffffffffffffffffffffffffffffff1673ffffffffffffffffffffffffffffffffffffffff16815260200191505060405180910390a1600160003373ffffffffffffffffffffffffffffffffffffffff1673ffffffffffffffffffffffffffffffffffffffff16815260200190815260200160002060009054906101000a900460ff1690509056fea165627a7a723058204e7915852a9e65cbd6f27b1d47fe5e2930c28a379a4ad9ff55002a2286ec8e320029",
  "source": "/*\n    This exercise has been updated to use Solidity version 0.5\n    Breaking changes from 0.4 to 0.5 can be found here:\n    https://solidity.readthedocs.io/en/v0.5.0/050-breaking-changes.html\n*/\n\npragma solidity ^0.5.0;\n\ncontract SimpleBank {\n\n    //\n    // State variables\n    //\n\n    /* Fill in the keyword. Hint: We want to protect our users balance from other contracts*/\n    mapping (address => uint) private balances;\n\n    /* Fill in the keyword. We want to create a getter function and allow contracts to be able to see if a user is enrolled.  */\n    mapping (address => bool) public enrolled;\n\n    /* Let's make sure everyone knows who owns the bank. Use the appropriate keyword for this*/\n    address public owner;\n\n    //\n    // Events - publicize actions to external listeners\n    //\n\n    /* Add an argument for this event, an accountAddress */\n    event LogEnrolled(address accountAddress);\n\n    /* Add 2 arguments for this event, an accountAddress and an amount */\n    event LogDepositMade(address accountAddress, uint amount);\n\n    /* Create an event called LogWithdrawal */\n    /* Add 3 arguments for this event, an accountAddress, withdrawAmount and a newBalance */\n    event LogWithdrawal(address accountAddress, uint amount, uint newBalance);\n\n        //\n        // Modifiers\n        //\n\n        // @notice onlyEnrolled\n        // Ensures the msg.sender has already been enrolled before executing a function\n        modifier onlyEnrolled {\n            require(\n                enrolled[msg.sender] == true,\n                \"Only enrolled accounts can call this function.\"\n            );\n            _;\n        }\n\n        // @notice notEnrolled\n        // Ensures the msg.sender has not already been enrolled before executing a function\n        modifier notEnrolled {\n            require(\n                enrolled[msg.sender] == false,\n                \"Only accounts not enrolled can call this function.\"\n            );\n            _;\n        }\n\n    //\n    // Functions\n    //\n\n    /* Use the appropriate global variable to get the sender of the transaction */\n    constructor() public {\n      owner = msg.sender;\n        /* Set the owner to the creator of this contract */\n    }\n\n    // Fallback function - Called if other functions don't match call or\n    // sent ether without data\n    // Typically, called when invalid data is sent\n    // Added so ether sent to this contract is reverted if the contract fails\n    // otherwise, the sender's money is transferred to contract\n    function() external payable {\n        revert();\n    }\n\n    /// @notice Get balance\n    /// @return The balance of the user\n    // A SPECIAL KEYWORD prevents function from editing state variables;\n    // allows function to run locally/off blockchain\n    function getBalance() view public returns (uint) {\n      return balances[msg.sender];        /* Get the balance of the sender of this transaction */\n    }\n\n    /// @notice Enroll a customer with the bank\n    /// @return The users enrolled status\n    // Emit the appropriate event\n    function enroll() public notEnrolled returns (bool){\n      enrolled[msg.sender] = true;\n      emit LogEnrolled(msg.sender);\n      return enrolled[msg.sender];\n    }\n\n    /// @notice Deposit ether into bank\n    /// @return The balance of the user after the deposit is made\n    // Add the appropriate keyword so that this function can receive ether\n    // Use the appropriate global variables to get the transaction sender and value\n    // Emit the appropriate event\n    // Users should be enrolled before they can make deposits\n    function deposit() public payable returns (uint) {\n        /* Add the amount to the user's balance, call the event associated with a deposit,\n          then return the balance of the user */\n          require(enrolled[msg.sender]);\n          balances[msg.sender] += msg.value;\n          emit LogDepositMade(msg.sender, msg.value);\n          return balances[msg.sender];\n    }\n\n    /// @notice Withdraw ether from bank\n    /// @dev This does not return any excess ether sent to it\n    /// @param withdrawAmount amount you want to withdraw\n    /// @return The balance remaining for the user\n    // Emit the appropriate event\n    function withdraw(uint withdrawAmount) public returns (uint) {\n        /* If the sender's balance is at least the amount they want to withdraw,\n           Subtract the amount from the sender's balance, and try to send that amount of ether\n           to the user attempting to withdraw.\n           return the user's balance.*/\n        require(withdrawAmount <= balances[msg.sender]);\n        balances[msg.sender] -= withdrawAmount;\n        msg.sender.transfer(withdrawAmount);\n        uint newBalance = balances[msg.sender];\n        emit LogWithdrawal(msg.sender, withdrawAmount, newBalance);\n        return balances[msg.sender];\n\n    }\n\n}\n",
  "sourcePath": "/Users/david.kobrosky/Desktop/Proj/simple-bank-exercise-Davidkobro/contracts/SimpleBank.sol",
  "compiler": {
    "name": "solc",
    "version": "0.5.0+commit.1d4f565a.Emscripten.clang"
  },
  "schemaVersion": "3.0.6",
  "updatedAt": "2019-07-08T19:03:39.105Z",
  "devdoc": {
    "methods": {
      "deposit(address,uint256)": {
        "return": "The balance of the user after the deposit is made"
      },
      "enroll(address)": {
        "return": "The users enrolled status"
      },
      "getBalance(address)": {
        "return": "The balance of the user"
      },
      "withdraw(uint256)": {
        "details": "This does not return any excess ether sent to it",
        "params": {
          "withdrawAmount": "amount you want to withdraw"
        },
        "return": "The balance remaining for the user"
      },
      "enroll()": {
        "return": "The users enrolled status"
      },
      "deposit()": {
        "return": "The balance of the user after the deposit is made"
      },
      "getBalance()": {
        "return": "The balance of the user"
      }
    }
  },
  "userdoc": {
    "methods": {
      "deposit(address,uint256)": {
        "notice": "Deposit ether into bank"
      },
      "enroll(address)": {
        "notice": "Enroll a customer with the bank"
      },
      "getBalance(address)": {
        "notice": "Get balance"
      },
      "withdraw(uint256)": {
        "notice": "Withdraw ether from bank"
      },
      "enroll()": {
        "notice": "Enroll a customer with the bank"
      },
      "deposit()": {
        "notice": "Deposit ether into bank"
      },
      "getBalance()": {
        "notice": "Get balance"
      }
    }
  }
}